:020000040000FA
:0600000003EF02F0120004
:020006001200E6
:0600080027EF00F01200DA
:02000E000100EF
:0C001000220400007C0000000200000040
:04001C0000000000E0
:1000200000000000000000000000000000000000D0
:100030000000000012003C0EE66EE3EC01F0E55219
:100040001200140EE66EE3EC01F0E5521200DACF76
:10005000E4FFE9CFE4FFEACFE4FFE65281BA02D041
:10006000D66A19D0D6CF60F000016051146E156ABF
:10007000153408E214509608000E155403E2616B23
:10008000626B09D06151EA6A660FE96E000EEA22DE
:1000900060C0EFFF612B000161510B0802E2010E0D
:1000A000626FF290E552E5CFEAFFE5CFE9FFE5CFD9
:1000B000DAFF1100D9CFE6FFE1CFD9FF1F0E086E9E
:1000C000096AFD0EDBCF0DF0FE0EDBCF0EF09FECCC
:1000D00001F006C055FFE552E7CFD9FF12000F012E
:1000E0005551166E176A173404E21650E008000ED8
:1000F000175403E31F0E5525556F12001F0E0F01F5
:10010000555D03E31F0E555D556F12000001200E73
:10011000616F6151166E176AD890175004E69C0EF5
:10012000165C000E175812E2030E6115100DCF0E6B
:100130000F015715F310576F00016151E840E84077
:100140003F0B0F01586F0001612BE3D712000F0125
:10015000586B1200D26A300ED36E9B9C926A0F01CC
:10016000386B9368396B946A3A6B956A3B6B3C6B5E
:10017000966AD10ED56ED08EF28EF29CF286F18008
:10018000200E626EF290486BBB68060EBA6E0C0EC3
:10019000576F546F81B806D0B9DF0A0EE66EE3ECF4
:1001A00001F0E5520001625175E0646B656B616BB3
:1001B0000C0E615D11E2D890653364336151EA6AD7
:1001C000660FE96E000EEA22EF50460803E2645122
:1001D000080E6513612BECD764C016F065C017F0EC
:1001E000070ED89017321632E804FBE116C07CF0F7
:1001F0007F0E0001641500017D6F806EE850630A78
:1002000046E0030A42E0670A39E0010A35E0030AE2
:1002100031E0010A2DE0070A29E0010A25E0030A7E
:1002200021E0010A1DE0090A19E0360A15E0310A49
:1002300011E01C0A0CE0010A08E0020A04E0010ACD
:1002400027E1A00E05D0500E03D0600E01D0900E15
:10025000826E1ED044DF1CD051DF1AD0000E0FD0AA
:10026000010E0DD0020E0BD0030E09D0040E07D0E4
:10027000050E05D0060E03D0070E01D0080EE66E5F
:10028000E66A18DFE552E55203D040DF01D05FDFB8
:100290000001626B050EE66ECCEC01F0E5527AD7F8
:1002A0000E0EF66E000EF76E000EF86E00010900DD
:1002B000F550776F0900F550786F03E1776701D04B
:1002C0003DD00900F550726F0900F550736F0900B9
:1002D000F550746F09000900F550E96E0900F550FA
:1002E000EA6E090009000900F550756F0900F55024
:1002F000766F09000900F6CF79F0F7CF7AF0F8CFE2
:100300007BF072C0F6FF73C0F7FF74C0F8FF000106
:10031000755302E1765307E00900F550EE6E75075C
:10032000F8E27607F9D779C0F6FF7AC0F7FF7BC00D
:0E033000F8FF00017707000E785BBFD71200C0
:02033E0009C0F4
:1003400013F008C012F008500D02F4CF07F0F3CFFD
:1003500006F009500E02F4CF09F0F3CF08F00D02B9
:10036000F3500726F4500822E86A092212500E02C0
:10037000F3500726F4500822E86A09220EAEC5EFB2
:1003800001F01250085E1350095A13AE000C0D50C4
:08039000085E0E50095A000C32
:08039800FF0EE350196EEF0E99
:1003A00001D0F30EE76EE72ED3EF01F00C0E186EBE
:1003B000E76AE72ED9EF01F0182ED8EF01F0192ED9
:0603C000D1EF01F0120074
:0A03C600FF0EE350196E480E01D03F
:1003D0004C0EE76EE72EFED7E76AE72EFED7192E02
:0603E000F7D70000120037
:0A03E600000EF36E00EE00F0060EAC
:1003F00001D81200EA6002D0EE6AFCD7F350E9603F
:060400001200EE6AFCD7B9
:0A04060015EE00F025EE00F0F86A94
:10041000019C50EC01F003EC00F0AAEC00F0FBD7DB
:020420001200C8
:020422000000D8
:020000040030CA
:010001006896
:010002000FEE
:0100030030CC
:01000500B545
:0100060001F8
:00000001FF
